{
	"dev_web3/FreeCodeCamp/FundMe.sol": {
		"FundMe": {
			"abi": [
				{
					"inputs": [],
					"name": "fund",
					"outputs": [],
					"stateMutability": "payable",
					"type": "function"
				},
				{
					"inputs": [],
					"name": "number",
					"outputs": [
						{
							"internalType": "uint256",
							"name": "",
							"type": "uint256"
						}
					],
					"stateMutability": "view",
					"type": "function"
				}
			],
			"devdoc": {
				"kind": "dev",
				"methods": {},
				"version": 1
			},
			"evm": {
				"assembly": "    /* \"dev_web3/FreeCodeCamp/FundMe.sol\":58:211  contract FundMe{... */\n  mstore(0x40, 0x80)\n  callvalue\n  dup1\n  iszero\n  tag_1\n  jumpi\n  0x00\n  dup1\n  revert\ntag_1:\n  pop\n  dataSize(sub_0)\n  dup1\n  dataOffset(sub_0)\n  0x00\n  codecopy\n  0x00\n  return\nstop\n\nsub_0: assembly {\n        /* \"dev_web3/FreeCodeCamp/FundMe.sol\":58:211  contract FundMe{... */\n      mstore(0x40, 0x80)\n      jumpi(tag_1, lt(calldatasize, 0x04))\n      shr(0xe0, calldataload(0x00))\n      dup1\n      0x8381f58a\n      eq\n      tag_2\n      jumpi\n      dup1\n      0xb60d4288\n      eq\n      tag_3\n      jumpi\n    tag_1:\n      0x00\n      dup1\n      revert\n        /* \"dev_web3/FreeCodeCamp/FundMe.sol\":80:101  uint256 public number */\n    tag_2:\n      callvalue\n      dup1\n      iszero\n      tag_4\n      jumpi\n      0x00\n      dup1\n      revert\n    tag_4:\n      pop\n      tag_5\n      tag_6\n      jump\t// in\n    tag_5:\n      mload(0x40)\n      tag_7\n      swap2\n      swap1\n      tag_8\n      jump\t// in\n    tag_7:\n      mload(0x40)\n      dup1\n      swap2\n      sub\n      swap1\n      return\n        /* \"dev_web3/FreeCodeCamp/FundMe.sol\":108:209  function fund() public payable {... */\n    tag_3:\n      tag_9\n      tag_10\n      jump\t// in\n    tag_9:\n      stop\n        /* \"dev_web3/FreeCodeCamp/FundMe.sol\":80:101  uint256 public number */\n    tag_6:\n      sload(0x00)\n      dup2\n      jump\t// out\n        /* \"dev_web3/FreeCodeCamp/FundMe.sol\":108:209  function fund() public payable {... */\n    tag_10:\n        /* \"dev_web3/FreeCodeCamp/FundMe.sol\":158:159  5 */\n      0x05\n        /* \"dev_web3/FreeCodeCamp/FundMe.sol\":149:155  number */\n      0x00\n        /* \"dev_web3/FreeCodeCamp/FundMe.sol\":149:159  number = 5 */\n      dup2\n      swap1\n      sstore\n      pop\n        /* \"dev_web3/FreeCodeCamp/FundMe.sol\":189:193  1e18 */\n      0x0de0b6b3a7640000\n        /* \"dev_web3/FreeCodeCamp/FundMe.sol\":177:186  msg.value */\n      callvalue\n        /* \"dev_web3/FreeCodeCamp/FundMe.sol\":177:193  msg.value > 1e18 */\n      gt\n        /* \"dev_web3/FreeCodeCamp/FundMe.sol\":169:202  require(msg.value > 1e18, \"malo\") */\n      tag_12\n      jumpi\n      mload(0x40)\n      0x08c379a000000000000000000000000000000000000000000000000000000000\n      dup2\n      mstore\n      0x04\n      add\n      tag_13\n      swap1\n      tag_14\n      jump\t// in\n    tag_13:\n      mload(0x40)\n      dup1\n      swap2\n      sub\n      swap1\n      revert\n    tag_12:\n        /* \"dev_web3/FreeCodeCamp/FundMe.sol\":108:209  function fund() public payable {... */\n      jump\t// out\n        /* \"#utility.yul\":7:84   */\n    tag_15:\n        /* \"#utility.yul\":44:51   */\n      0x00\n        /* \"#utility.yul\":73:78   */\n      dup2\n        /* \"#utility.yul\":62:78   */\n      swap1\n      pop\n        /* \"#utility.yul\":7:84   */\n      swap2\n      swap1\n      pop\n      jump\t// out\n        /* \"#utility.yul\":90:208   */\n    tag_16:\n        /* \"#utility.yul\":177:201   */\n      tag_23\n        /* \"#utility.yul\":195:200   */\n      dup2\n        /* \"#utility.yul\":177:201   */\n      tag_15\n      jump\t// in\n    tag_23:\n        /* \"#utility.yul\":172:175   */\n      dup3\n        /* \"#utility.yul\":165:202   */\n      mstore\n        /* \"#utility.yul\":90:208   */\n      pop\n      pop\n      jump\t// out\n        /* \"#utility.yul\":214:436   */\n    tag_8:\n        /* \"#utility.yul\":307:311   */\n      0x00\n        /* \"#utility.yul\":345:347   */\n      0x20\n        /* \"#utility.yul\":334:343   */\n      dup3\n        /* \"#utility.yul\":330:348   */\n      add\n        /* \"#utility.yul\":322:348   */\n      swap1\n      pop\n        /* \"#utility.yul\":358:429   */\n      tag_25\n        /* \"#utility.yul\":426:427   */\n      0x00\n        /* \"#utility.yul\":415:424   */\n      dup4\n        /* \"#utility.yul\":411:428   */\n      add\n        /* \"#utility.yul\":402:408   */\n      dup5\n        /* \"#utility.yul\":358:429   */\n      tag_16\n      jump\t// in\n    tag_25:\n        /* \"#utility.yul\":214:436   */\n      swap3\n      swap2\n      pop\n      pop\n      jump\t// out\n        /* \"#utility.yul\":442:611   */\n    tag_17:\n        /* \"#utility.yul\":526:537   */\n      0x00\n        /* \"#utility.yul\":560:566   */\n      dup3\n        /* \"#utility.yul\":555:558   */\n      dup3\n        /* \"#utility.yul\":548:567   */\n      mstore\n        /* \"#utility.yul\":600:604   */\n      0x20\n        /* \"#utility.yul\":595:598   */\n      dup3\n        /* \"#utility.yul\":591:605   */\n      add\n        /* \"#utility.yul\":576:605   */\n      swap1\n      pop\n        /* \"#utility.yul\":442:611   */\n      swap3\n      swap2\n      pop\n      pop\n      jump\t// out\n        /* \"#utility.yul\":617:771   */\n    tag_18:\n        /* \"#utility.yul\":757:763   */\n      0x6d616c6f00000000000000000000000000000000000000000000000000000000\n        /* \"#utility.yul\":753:754   */\n      0x00\n        /* \"#utility.yul\":745:751   */\n      dup3\n        /* \"#utility.yul\":741:755   */\n      add\n        /* \"#utility.yul\":734:764   */\n      mstore\n        /* \"#utility.yul\":617:771   */\n      pop\n      jump\t// out\n        /* \"#utility.yul\":777:1142   */\n    tag_19:\n        /* \"#utility.yul\":919:922   */\n      0x00\n        /* \"#utility.yul\":940:1006   */\n      tag_29\n        /* \"#utility.yul\":1004:1005   */\n      0x04\n        /* \"#utility.yul\":999:1002   */\n      dup4\n        /* \"#utility.yul\":940:1006   */\n      tag_17\n      jump\t// in\n    tag_29:\n        /* \"#utility.yul\":933:1006   */\n      swap2\n      pop\n        /* \"#utility.yul\":1015:1108   */\n      tag_30\n        /* \"#utility.yul\":1104:1107   */\n      dup3\n        /* \"#utility.yul\":1015:1108   */\n      tag_18\n      jump\t// in\n    tag_30:\n        /* \"#utility.yul\":1133:1135   */\n      0x20\n        /* \"#utility.yul\":1128:1131   */\n      dup3\n        /* \"#utility.yul\":1124:1136   */\n      add\n        /* \"#utility.yul\":1117:1136   */\n      swap1\n      pop\n        /* \"#utility.yul\":777:1142   */\n      swap2\n      swap1\n      pop\n      jump\t// out\n        /* \"#utility.yul\":1148:1567   */\n    tag_14:\n        /* \"#utility.yul\":1314:1318   */\n      0x00\n        /* \"#utility.yul\":1352:1354   */\n      0x20\n        /* \"#utility.yul\":1341:1350   */\n      dup3\n        /* \"#utility.yul\":1337:1355   */\n      add\n        /* \"#utility.yul\":1329:1355   */\n      swap1\n      pop\n        /* \"#utility.yul\":1401:1410   */\n      dup2\n        /* \"#utility.yul\":1395:1399   */\n      dup2\n        /* \"#utility.yul\":1391:1411   */\n      sub\n        /* \"#utility.yul\":1387:1388   */\n      0x00\n        /* \"#utility.yul\":1376:1385   */\n      dup4\n        /* \"#utility.yul\":1372:1389   */\n      add\n        /* \"#utility.yul\":1365:1412   */\n      mstore\n        /* \"#utility.yul\":1429:1560   */\n      tag_32\n        /* \"#utility.yul\":1555:1559   */\n      dup2\n        /* \"#utility.yul\":1429:1560   */\n      tag_19\n      jump\t// in\n    tag_32:\n        /* \"#utility.yul\":1421:1560   */\n      swap1\n      pop\n        /* \"#utility.yul\":1148:1567   */\n      swap2\n      swap1\n      pop\n      jump\t// out\n\n    auxdata: 0xa264697066735822122049e66e4d2770701aa8c7643ffafd02ed3a522becb1d7aa6b84b2cdd14ccdf63b64736f6c63430008160033\n}\n",
				"bytecode": {
					"linkReferences": {},
					"object": "608060405234801561000f575f80fd5b506101978061001d5f395ff3fe608060405260043610610028575f3560e01c80638381f58a1461002c578063b60d428814610056575b5f80fd5b348015610037575f80fd5b50610040610060565b60405161004d91906100d0565b60405180910390f35b61005e610065565b005b5f5481565b60055f81905550670de0b6b3a764000034116100b6576040517f08c379a00000000000000000000000000000000000000000000000000000000081526004016100ad90610143565b60405180910390fd5b565b5f819050919050565b6100ca816100b8565b82525050565b5f6020820190506100e35f8301846100c1565b92915050565b5f82825260208201905092915050565b7f6d616c6f000000000000000000000000000000000000000000000000000000005f82015250565b5f61012d6004836100e9565b9150610138826100f9565b602082019050919050565b5f6020820190508181035f83015261015a81610121565b905091905056fea264697066735822122049e66e4d2770701aa8c7643ffafd02ed3a522becb1d7aa6b84b2cdd14ccdf63b64736f6c63430008160033",
					"opcodes": "PUSH1 0x80 PUSH1 0x40 MSTORE CALLVALUE DUP1 ISZERO PUSH2 0xF JUMPI PUSH0 DUP1 REVERT JUMPDEST POP PUSH2 0x197 DUP1 PUSH2 0x1D PUSH0 CODECOPY PUSH0 RETURN INVALID PUSH1 0x80 PUSH1 0x40 MSTORE PUSH1 0x4 CALLDATASIZE LT PUSH2 0x28 JUMPI PUSH0 CALLDATALOAD PUSH1 0xE0 SHR DUP1 PUSH4 0x8381F58A EQ PUSH2 0x2C JUMPI DUP1 PUSH4 0xB60D4288 EQ PUSH2 0x56 JUMPI JUMPDEST PUSH0 DUP1 REVERT JUMPDEST CALLVALUE DUP1 ISZERO PUSH2 0x37 JUMPI PUSH0 DUP1 REVERT JUMPDEST POP PUSH2 0x40 PUSH2 0x60 JUMP JUMPDEST PUSH1 0x40 MLOAD PUSH2 0x4D SWAP2 SWAP1 PUSH2 0xD0 JUMP JUMPDEST PUSH1 0x40 MLOAD DUP1 SWAP2 SUB SWAP1 RETURN JUMPDEST PUSH2 0x5E PUSH2 0x65 JUMP JUMPDEST STOP JUMPDEST PUSH0 SLOAD DUP2 JUMP JUMPDEST PUSH1 0x5 PUSH0 DUP2 SWAP1 SSTORE POP PUSH8 0xDE0B6B3A7640000 CALLVALUE GT PUSH2 0xB6 JUMPI PUSH1 0x40 MLOAD PUSH32 0x8C379A000000000000000000000000000000000000000000000000000000000 DUP2 MSTORE PUSH1 0x4 ADD PUSH2 0xAD SWAP1 PUSH2 0x143 JUMP JUMPDEST PUSH1 0x40 MLOAD DUP1 SWAP2 SUB SWAP1 REVERT JUMPDEST JUMP JUMPDEST PUSH0 DUP2 SWAP1 POP SWAP2 SWAP1 POP JUMP JUMPDEST PUSH2 0xCA DUP2 PUSH2 0xB8 JUMP JUMPDEST DUP3 MSTORE POP POP JUMP JUMPDEST PUSH0 PUSH1 0x20 DUP3 ADD SWAP1 POP PUSH2 0xE3 PUSH0 DUP4 ADD DUP5 PUSH2 0xC1 JUMP JUMPDEST SWAP3 SWAP2 POP POP JUMP JUMPDEST PUSH0 DUP3 DUP3 MSTORE PUSH1 0x20 DUP3 ADD SWAP1 POP SWAP3 SWAP2 POP POP JUMP JUMPDEST PUSH32 0x6D616C6F00000000000000000000000000000000000000000000000000000000 PUSH0 DUP3 ADD MSTORE POP JUMP JUMPDEST PUSH0 PUSH2 0x12D PUSH1 0x4 DUP4 PUSH2 0xE9 JUMP JUMPDEST SWAP2 POP PUSH2 0x138 DUP3 PUSH2 0xF9 JUMP JUMPDEST PUSH1 0x20 DUP3 ADD SWAP1 POP SWAP2 SWAP1 POP JUMP JUMPDEST PUSH0 PUSH1 0x20 DUP3 ADD SWAP1 POP DUP2 DUP2 SUB PUSH0 DUP4 ADD MSTORE PUSH2 0x15A DUP2 PUSH2 0x121 JUMP JUMPDEST SWAP1 POP SWAP2 SWAP1 POP JUMP INVALID LOG2 PUSH5 0x6970667358 0x22 SLT KECCAK256 0x49 0xE6 PUSH15 0x4D2770701AA8C7643FFAFD02ED3A52 0x2B 0xEC 0xB1 0xD7 0xAA PUSH12 0x84B2CDD14CCDF63B64736F6C PUSH4 0x43000816 STOP CALLER "
				},
				"gasEstimates": {
					"creation": {
						"codeDepositCost": "81400",
						"executionCost": "127",
						"totalCost": "81527"
					},
					"external": {
						"fund()": "22538",
						"number()": "2402"
					}
				},
				"methodIdentifiers": {
					"fund()": "b60d4288",
					"number()": "8381f58a"
				}
			},
			"storageLayout": {
				"storage": [
					{
						"astId": 3,
						"contract": "dev_web3/FreeCodeCamp/FundMe.sol:FundMe",
						"label": "number",
						"offset": 0,
						"slot": "0",
						"type": "t_uint256"
					}
				],
				"types": {
					"t_uint256": {
						"encoding": "inplace",
						"label": "uint256",
						"numberOfBytes": "32"
					}
				}
			},
			"userdoc": {
				"kind": "user",
				"methods": {},
				"version": 1
			}
		}
	}
}